{
  "contractName": "Minter",
  "abi": [
    {
      "inputs": [
        {
          "internalType": "uint256",
          "name": "_initialSupply",
          "type": "uint256"
        }
      ],
      "stateMutability": "nonpayable",
      "type": "constructor"
    },
    {
      "anonymous": false,
      "inputs": [
        {
          "indexed": false,
          "internalType": "address",
          "name": "target",
          "type": "address"
        },
        {
          "indexed": false,
          "internalType": "bool",
          "name": "frozen",
          "type": "bool"
        }
      ],
      "name": "FrozenAccount",
      "type": "event"
    },
    {
      "anonymous": false,
      "inputs": [
        {
          "indexed": true,
          "internalType": "address",
          "name": "from",
          "type": "address"
        },
        {
          "indexed": true,
          "internalType": "address",
          "name": "to",
          "type": "address"
        },
        {
          "indexed": false,
          "internalType": "uint256",
          "name": "value",
          "type": "uint256"
        }
      ],
      "name": "Transfer",
      "type": "event"
    },
    {
      "inputs": [
        {
          "internalType": "address",
          "name": "",
          "type": "address"
        },
        {
          "internalType": "address",
          "name": "",
          "type": "address"
        }
      ],
      "name": "allowance",
      "outputs": [
        {
          "internalType": "uint256",
          "name": "",
          "type": "uint256"
        }
      ],
      "stateMutability": "view",
      "type": "function",
      "constant": true
    },
    {
      "inputs": [
        {
          "internalType": "address",
          "name": "",
          "type": "address"
        }
      ],
      "name": "coinBalance",
      "outputs": [
        {
          "internalType": "uint256",
          "name": "",
          "type": "uint256"
        }
      ],
      "stateMutability": "view",
      "type": "function",
      "constant": true
    },
    {
      "inputs": [
        {
          "internalType": "address",
          "name": "",
          "type": "address"
        }
      ],
      "name": "frozenAccount",
      "outputs": [
        {
          "internalType": "bool",
          "name": "",
          "type": "bool"
        }
      ],
      "stateMutability": "view",
      "type": "function",
      "constant": true
    },
    {
      "inputs": [],
      "name": "owner",
      "outputs": [
        {
          "internalType": "address",
          "name": "",
          "type": "address"
        }
      ],
      "stateMutability": "view",
      "type": "function",
      "constant": true
    },
    {
      "inputs": [
        {
          "internalType": "address",
          "name": "_to",
          "type": "address"
        },
        {
          "internalType": "uint256",
          "name": "_amount",
          "type": "uint256"
        }
      ],
      "name": "transfer",
      "outputs": [],
      "stateMutability": "nonpayable",
      "type": "function"
    },
    {
      "inputs": [
        {
          "internalType": "address",
          "name": "_authorizedAccount",
          "type": "address"
        },
        {
          "internalType": "uint256",
          "name": "_allowance",
          "type": "uint256"
        }
      ],
      "name": "authorize",
      "outputs": [
        {
          "internalType": "bool",
          "name": "success",
          "type": "bool"
        }
      ],
      "stateMutability": "nonpayable",
      "type": "function"
    },
    {
      "inputs": [
        {
          "internalType": "address",
          "name": "_from",
          "type": "address"
        },
        {
          "internalType": "address",
          "name": "_to",
          "type": "address"
        },
        {
          "internalType": "uint256",
          "name": "_amount",
          "type": "uint256"
        }
      ],
      "name": "transferFrom",
      "outputs": [
        {
          "internalType": "bool",
          "name": "success",
          "type": "bool"
        }
      ],
      "stateMutability": "nonpayable",
      "type": "function"
    },
    {
      "inputs": [
        {
          "internalType": "address",
          "name": "_recipient",
          "type": "address"
        },
        {
          "internalType": "uint256",
          "name": "_mintedAmount",
          "type": "uint256"
        }
      ],
      "name": "mint",
      "outputs": [],
      "stateMutability": "nonpayable",
      "type": "function"
    },
    {
      "inputs": [
        {
          "internalType": "address",
          "name": "target",
          "type": "address"
        },
        {
          "internalType": "bool",
          "name": "freeze",
          "type": "bool"
        }
      ],
      "name": "freezeAccount",
      "outputs": [],
      "stateMutability": "nonpayable",
      "type": "function"
    }
  ],
  "bytecode": "0x608060405234801561001057600080fd5b5060405161080238038061080283398101604081905261002f916100e0565b600380546001600160a01b0319163390811790915561004e9082610054565b5061011c565b6003546001600160a01b0316331461006b57600080fd5b6001600160a01b038216600090815260208190526040812080548392906100939084906100f8565b90915550506003546040518281526001600160a01b038481169216907fddf252ad1be2c89b69c2b068fc378daa952ba7f163c4a11628f55a4df523b3ef9060200160405180910390a35050565b6000602082840312156100f1578081fd5b5051919050565b6000821982111561011757634e487b7160e01b81526011600452602481fd5b500190565b6106d78061012b6000396000f3fe608060405234801561001057600080fd5b50600436106100935760003560e01c8063b414d4b611610066578063b414d4b614610113578063c1dbd9b214610136578063dd62ed3e1461016e578063e724529c146101a7578063fabde80c146101ba57600080fd5b806323b872dd1461009857806340c10f19146100c05780638da5cb5b146100d5578063a9059cbb14610100575b600080fd5b6100ab6100a63660046105be565b6101da565b60405190151581526020015b60405180910390f35b6100d36100ce366004610633565b61035d565b005b6003546100e8906001600160a01b031681565b6040516001600160a01b0390911681526020016100b7565b6100d361010e366004610633565b6103ea565b6100ab61012136600461056b565b60026020526000908152604090205460ff1681565b6100ab610144366004610633565b3360009081526001602081815260408084206001600160a01b039690961684529490529290205590565b61019961017c36600461058c565b600160209081526000928352604080842090915290825290205481565b6040519081526020016100b7565b6100d36101b53660046105f9565b6104d5565b6101996101c836600461056b565b60006020819052908152604090205481565b60006001600160a01b0383166101ef57600080fd5b6001600160a01b03841660009081526020819052604090205482111561021457600080fd5b6001600160a01b038316600090815260208190526040902054610237838261065c565b101561024257600080fd5b6001600160a01b038416600090815260016020908152604080832033845290915290205482111561027257600080fd5b6001600160a01b0384166000908152602081905260408120805484929061029a908490610674565b90915550506001600160a01b038316600090815260208190526040812080548492906102c790849061065c565b90915550506001600160a01b0384166000908152600160209081526040808320338452909152812080548492906102ff908490610674565b92505081905550826001600160a01b0316846001600160a01b03167fddf252ad1be2c89b69c2b068fc378daa952ba7f163c4a11628f55a4df523b3ef8460405161034b91815260200190565b60405180910390a35060019392505050565b6003546001600160a01b0316331461037457600080fd5b6001600160a01b0382166000908152602081905260408120805483929061039c90849061065c565b90915550506003546040518281526001600160a01b038481169216907fddf252ad1be2c89b69c2b068fc378daa952ba7f163c4a11628f55a4df523b3ef906020015b60405180910390a35050565b6001600160a01b0382166103fd57600080fd5b3360009081526020819052604090205481111561041957600080fd5b6001600160a01b03821660009081526020819052604090205461043c828261065c565b101561044757600080fd5b3360009081526020819052604081208054839290610466908490610674565b90915550506001600160a01b0382166000908152602081905260408120805483929061049390849061065c565b90915550506040518181526001600160a01b0383169033907fddf252ad1be2c89b69c2b068fc378daa952ba7f163c4a11628f55a4df523b3ef906020016103de565b6003546001600160a01b031633146104ec57600080fd5b6001600160a01b038216600081815260026020908152604091829020805460ff19168515159081179091558251938452908301527f67a17b8db8ff8fa7cff69c2328bf8a35f9be2c88abeea30be900fc28eece28ed910160405180910390a15050565b80356001600160a01b038116811461056657600080fd5b919050565b60006020828403121561057c578081fd5b6105858261054f565b9392505050565b6000806040838503121561059e578081fd5b6105a78361054f565b91506105b56020840161054f565b90509250929050565b6000806000606084860312156105d2578081fd5b6105db8461054f565b92506105e96020850161054f565b9150604084013590509250925092565b6000806040838503121561060b578182fd5b6106148361054f565b915060208301358015158114610628578182fd5b809150509250929050565b60008060408385031215610645578182fd5b61064e8361054f565b946020939093013593505050565b6000821982111561066f5761066f61068b565b500190565b6000828210156106865761068661068b565b500390565b634e487b7160e01b600052601160045260246000fdfea264697066735822122075978dc4c16a13ec48ec7a6a76eaac59b7a701a0453f66e047e87bbc74f2127a64736f6c63430008040033",
  "immutableReferences": {},
  "source": "// SPDX-License-Identifier: GPL-3.0\npragma solidity ^0.8.4;\n\ncontract Minter {\n    mapping (address => uint256) public coinBalance;\n    mapping (address => mapping (address => uint256)) public allowance;\n    mapping (address => bool) public frozenAccount;\n    address public owner;\n\n    event Transfer(address indexed from, address indexed to, uint256 value);\n    event FrozenAccount(address target, bool frozen);\n\n    modifier onlyOwner {\n        if (msg.sender != owner) revert();\n        _;\n    }\n\n    constructor(uint256 _initialSupply) {\n        owner = msg.sender;\n        mint(owner, _initialSupply);\n    }\n\n    function transfer(address _to, uint256 _amount) public {\n        require(_to != address(0x0));\n        require(coinBalance[msg.sender] >= _amount);\n        require(coinBalance[_to] + _amount >= coinBalance[_to]); // Avoids overflow\n        coinBalance[msg.sender] -= _amount;\n        coinBalance[_to] += _amount;\n        emit Transfer(msg.sender, _to, _amount);\n    }\n\n    function authorize(address _authorizedAccount, uint256 _allowance) public returns (bool success) {\n        allowance[msg.sender][_authorizedAccount] = _allowance;\n        return true;\n    }\n\n    function transferFrom(address _from, address _to, uint256 _amount) public returns (bool success) {\n        require(_to != address(0x0));\n        require(coinBalance[_from] >= _amount);\n        require(coinBalance[_to] + _amount >= coinBalance[_to]); // Avoids overflow\n        require(_amount <= allowance[_from][msg.sender]);\n        coinBalance[_from] -= _amount;\n        coinBalance[_to] += _amount;\n        allowance[_from][msg.sender] -= _amount;\n        emit Transfer(_from, _to, _amount);\n        return true;\n    }\n\n    function mint(address _recipient, uint256 _mintedAmount) onlyOwner public {\n        coinBalance[_recipient] += _mintedAmount;\n        emit Transfer(owner, _recipient, _mintedAmount);\n    }\n\n    function freezeAccount(address target, bool freeze) onlyOwner public {\n        frozenAccount[target] = freeze;\n        emit FrozenAccount(target, freeze);\n    }\n}",
  "sourcePath": "/Users/khalifa/Documents/khalifa/project/Minter/contracts/Minter.sol",
  "compiler": {
    "name": "solc",
    "version": "0.8.4+commit.c7e474f2.Emscripten.clang"
  },
  "schemaVersion": "3.4.16",
  "updatedAt": "2024-04-21T02:54:28.689Z",
  "networkType": "ethereum",
  "devdoc": {
    "kind": "dev",
    "methods": {},
    "version": 1
  },
  "userdoc": {
    "kind": "user",
    "methods": {},
    "version": 1
  }
}